{
  "contractName": "RideRequest",
  "abi": [
    {
      "constant": true,
      "inputs": [],
      "name": "name",
      "outputs": [
        {
          "name": "",
          "type": "string"
        }
      ],
      "payable": false,
      "stateMutability": "view",
      "type": "function",
      "signature": "0x06fdde03"
    },
    {
      "constant": true,
      "inputs": [
        {
          "name": "",
          "type": "uint256"
        }
      ],
      "name": "riders",
      "outputs": [
        {
          "name": "id",
          "type": "uint256"
        },
        {
          "name": "name",
          "type": "string"
        },
        {
          "name": "needsRide",
          "type": "bool"
        },
        {
          "name": "location",
          "type": "uint256"
        },
        {
          "name": "account",
          "type": "address"
        }
      ],
      "payable": false,
      "stateMutability": "view",
      "type": "function",
      "signature": "0x3ec37e90"
    },
    {
      "constant": true,
      "inputs": [
        {
          "name": "",
          "type": "uint256"
        }
      ],
      "name": "rides",
      "outputs": [
        {
          "name": "id",
          "type": "uint256"
        },
        {
          "components": [
            {
              "name": "id",
              "type": "uint256"
            },
            {
              "name": "name",
              "type": "string"
            },
            {
              "name": "car",
              "type": "string"
            },
            {
              "name": "givingRide",
              "type": "bool"
            },
            {
              "name": "location",
              "type": "uint256"
            },
            {
              "name": "account",
              "type": "address"
            }
          ],
          "name": "selectedDriver",
          "type": "tuple"
        },
        {
          "components": [
            {
              "name": "id",
              "type": "uint256"
            },
            {
              "name": "name",
              "type": "string"
            },
            {
              "name": "needsRide",
              "type": "bool"
            },
            {
              "name": "location",
              "type": "uint256"
            },
            {
              "name": "account",
              "type": "address"
            }
          ],
          "name": "selectedRider",
          "type": "tuple"
        },
        {
          "name": "price",
          "type": "uint256"
        }
      ],
      "payable": false,
      "stateMutability": "view",
      "type": "function",
      "signature": "0x5205f112"
    },
    {
      "constant": true,
      "inputs": [],
      "name": "riderCount",
      "outputs": [
        {
          "name": "",
          "type": "uint256"
        }
      ],
      "payable": false,
      "stateMutability": "view",
      "type": "function",
      "signature": "0xa43f4111"
    },
    {
      "constant": true,
      "inputs": [],
      "name": "rideCount",
      "outputs": [
        {
          "name": "",
          "type": "uint256"
        }
      ],
      "payable": false,
      "stateMutability": "view",
      "type": "function",
      "signature": "0xb47c1883"
    },
    {
      "constant": true,
      "inputs": [],
      "name": "driverCount",
      "outputs": [
        {
          "name": "",
          "type": "uint256"
        }
      ],
      "payable": false,
      "stateMutability": "view",
      "type": "function",
      "signature": "0xf359d66d"
    },
    {
      "constant": true,
      "inputs": [
        {
          "name": "",
          "type": "uint256"
        }
      ],
      "name": "drivers",
      "outputs": [
        {
          "name": "id",
          "type": "uint256"
        },
        {
          "name": "name",
          "type": "string"
        },
        {
          "name": "car",
          "type": "string"
        },
        {
          "name": "givingRide",
          "type": "bool"
        },
        {
          "name": "location",
          "type": "uint256"
        },
        {
          "name": "account",
          "type": "address"
        }
      ],
      "payable": false,
      "stateMutability": "view",
      "type": "function",
      "signature": "0xf79e5450"
    },
    {
      "inputs": [],
      "payable": false,
      "stateMutability": "nonpayable",
      "type": "constructor",
      "signature": "constructor"
    },
    {
      "anonymous": false,
      "inputs": [
        {
          "indexed": false,
          "name": "id",
          "type": "uint256"
        },
        {
          "indexed": false,
          "name": "name",
          "type": "string"
        },
        {
          "indexed": false,
          "name": "car",
          "type": "string"
        },
        {
          "indexed": false,
          "name": "givingRide",
          "type": "bool"
        },
        {
          "indexed": false,
          "name": "location",
          "type": "uint256"
        },
        {
          "indexed": false,
          "name": "account",
          "type": "address"
        }
      ],
      "name": "DriverCreated",
      "type": "event",
      "signature": "0x6dfb43b867cb5b6eddd25c14a5a95fa9e37c9d3114cffe4b0dbd7501c4972fe9"
    },
    {
      "anonymous": false,
      "inputs": [
        {
          "indexed": false,
          "name": "id",
          "type": "uint256"
        },
        {
          "indexed": false,
          "name": "name",
          "type": "string"
        },
        {
          "indexed": false,
          "name": "needsRide",
          "type": "bool"
        },
        {
          "indexed": false,
          "name": "location",
          "type": "uint256"
        },
        {
          "indexed": false,
          "name": "account",
          "type": "address"
        }
      ],
      "name": "RiderCreated",
      "type": "event",
      "signature": "0x890b9b7713630625464aeea69367c11366faa9b0129d37841e37c2bd3251bdd6"
    },
    {
      "anonymous": false,
      "inputs": [
        {
          "indexed": false,
          "name": "riderId",
          "type": "uint256"
        },
        {
          "indexed": false,
          "name": "riderName",
          "type": "string"
        },
        {
          "indexed": false,
          "name": "riderLocation",
          "type": "uint256"
        },
        {
          "indexed": false,
          "name": "riderAccount",
          "type": "address"
        },
        {
          "indexed": false,
          "name": "driverId",
          "type": "uint256"
        },
        {
          "indexed": false,
          "name": "driverName",
          "type": "string"
        },
        {
          "indexed": false,
          "name": "driverCar",
          "type": "string"
        },
        {
          "indexed": false,
          "name": "driverLocation",
          "type": "uint256"
        },
        {
          "indexed": false,
          "name": "driverAccount",
          "type": "address"
        },
        {
          "indexed": false,
          "name": "price",
          "type": "uint256"
        },
        {
          "indexed": false,
          "name": "dest",
          "type": "uint256"
        }
      ],
      "name": "RideRequested",
      "type": "event",
      "signature": "0x1911ab5e5f0808231f2d2e7094fa48ed66dd745d367542a63ca861c14a15c872"
    },
    {
      "constant": false,
      "inputs": [
        {
          "name": "_name",
          "type": "string"
        },
        {
          "name": "_car",
          "type": "string"
        },
        {
          "name": "_location",
          "type": "uint256"
        }
      ],
      "name": "createDriver",
      "outputs": [],
      "payable": false,
      "stateMutability": "nonpayable",
      "type": "function",
      "signature": "0x4eb3749b"
    },
    {
      "constant": false,
      "inputs": [
        {
          "name": "_name",
          "type": "string"
        },
        {
          "name": "_location",
          "type": "uint256"
        }
      ],
      "name": "createRider",
      "outputs": [],
      "payable": false,
      "stateMutability": "nonpayable",
      "type": "function",
      "signature": "0x8f73476e"
    },
    {
      "constant": false,
      "inputs": [
        {
          "name": "_id",
          "type": "uint256"
        },
        {
          "name": "destination",
          "type": "uint256"
        }
      ],
      "name": "requestRide",
      "outputs": [],
      "payable": true,
      "stateMutability": "payable",
      "type": "function",
      "signature": "0xc03045f9"
    }
  ],
  "bytecode": "0x60806040526000600155600060035560006005553480156200002057600080fd5b506040805190810160405280600481526020017f5465737400000000000000000000000000000000000000000000000000000000815250600090805190602001906200006e92919062000075565b5062000124565b828054600181600116156101000203166002900490600052602060002090601f016020900481019282601f10620000b857805160ff1916838001178555620000e9565b82800160010185558215620000e9579182015b82811115620000e8578251825591602001919060010190620000cb565b5b509050620000f89190620000fc565b5090565b6200012191905b808211156200011d57600081600090555060010162000103565b5090565b90565b6120df80620001346000396000f3fe6080604052600436106100a4576000357c0100000000000000000000000000000000000000000000000000000000900463ffffffff16806306fdde03146100a95780633ec37e90146100d45780634eb3749b146101155780635205f1121461013e5780638f73476e1461017e578063a43f4111146101a7578063b47c1883146101d2578063c03045f9146101fd578063f359d66d14610219578063f79e545014610244575b600080fd5b3480156100b557600080fd5b506100be610286565b6040516100cb9190611c67565b60405180910390f35b3480156100e057600080fd5b506100fb60048036036100f69190810190611a45565b610324565b60405161010c959493929190611d6d565b60405180910390f35b34801561012157600080fd5b5061013c60048036036101379190810190611972565b61041f565b005b34801561014a57600080fd5b5061016560048036036101609190810190611a45565b6105b0565b6040516101759493929190611ef6565b60405180910390f35b34801561018a57600080fd5b506101a560048036036101a091908101906119f1565b6108e6565b005b3480156101b357600080fd5b506101bc610a41565b6040516101c99190611c89565b60405180910390f35b3480156101de57600080fd5b506101e7610a47565b6040516101f49190611c89565b60405180910390f35b61021760048036036102129190810190611a6e565b610a4d565b005b34801561022557600080fd5b5061022e611544565b60405161023b9190611c89565b60405180910390f35b34801561025057600080fd5b5061026b60048036036102669190810190611a45565b61154a565b60405161027d96959493929190611dc7565b60405180910390f35b60008054600181600116156101000203166002900480601f01602080910402602001604051908101604052809291908181526020018280546001816001161561010002031660029004801561031c5780601f106102f15761010080835404028352916020019161031c565b820191906000526020600020905b8154815290600101906020018083116102ff57829003601f168201915b505050505081565b6004602052806000526040600020600091509050806000015490806001018054600181600116156101000203166002900480601f0160208091040260200160405190810160405280929190818152602001828054600181600116156101000203166002900480156103d65780601f106103ab576101008083540402835291602001916103d6565b820191906000526020600020905b8154815290600101906020018083116103b957829003601f168201915b5050505050908060020160009054906101000a900460ff16908060030154908060040160009054906101000a900473ffffffffffffffffffffffffffffffffffffffff16905085565b6000835111151561042f57600080fd5b6000825111151561043f57600080fd5b60016000815480929190600101919050555060c06040519081016040528060015481526020018481526020018381526020016000151581526020018281526020013373ffffffffffffffffffffffffffffffffffffffff168152506002600060015481526020019081526020016000206000820151816000015560208201518160010190805190602001906104d59291906116ff565b5060408201518160020190805190602001906104f29291906116ff565b5060608201518160030160006101000a81548160ff0219169083151502179055506080820151816004015560a08201518160050160006101000a81548173ffffffffffffffffffffffffffffffffffffffff021916908373ffffffffffffffffffffffffffffffffffffffff1602179055509050507f6dfb43b867cb5b6eddd25c14a5a95fa9e37c9d3114cffe4b0dbd7501c4972fe96001548484600085336040516105a396959493929190611cfe565b60405180910390a1505050565b60066020528060005260406000206000915090508060000154908060010160c0604051908101604052908160008201548152602001600182018054600181600116156101000203166002900480601f01602080910402602001604051908101604052809291908181526020018280546001816001161561010002031660029004801561067d5780601f106106525761010080835404028352916020019161067d565b820191906000526020600020905b81548152906001019060200180831161066057829003601f168201915b50505050508152602001600282018054600181600116156101000203166002900480601f01602080910402602001604051908101604052809291908181526020018280546001816001161561010002031660029004801561071f5780601f106106f45761010080835404028352916020019161071f565b820191906000526020600020905b81548152906001019060200180831161070257829003601f168201915b505050505081526020016003820160009054906101000a900460ff16151515158152602001600482015481526020016005820160009054906101000a900473ffffffffffffffffffffffffffffffffffffffff1673ffffffffffffffffffffffffffffffffffffffff1673ffffffffffffffffffffffffffffffffffffffff1681525050908060070160a0604051908101604052908160008201548152602001600182018054600181600116156101000203166002900480601f0160208091040260200160405190810160405280929190818152602001828054600181600116156101000203166002900480156108575780601f1061082c57610100808354040283529160200191610857565b820191906000526020600020905b81548152906001019060200180831161083a57829003601f168201915b505050505081526020016002820160009054906101000a900460ff16151515158152602001600382015481526020016004820160009054906101000a900473ffffffffffffffffffffffffffffffffffffffff1673ffffffffffffffffffffffffffffffffffffffff1673ffffffffffffffffffffffffffffffffffffffff16815250509080600c0154905084565b600082511115156108f657600080fd5b60036000815480929190600101919050555060a06040519081016040528060035481526020018381526020016000151581526020018281526020013373ffffffffffffffffffffffffffffffffffffffff168152506004600060035481526020019081526020016000206000820151816000015560208201518160010190805190602001906109869291906116ff565b5060408201518160020160006101000a81548160ff0219169083151502179055506060820151816003015560808201518160040160006101000a81548173ffffffffffffffffffffffffffffffffffffffff021916908373ffffffffffffffffffffffffffffffffffffffff1602179055509050507f890b9b7713630625464aeea69367c11366faa9b0129d37841e37c2bd3251bdd66003548360008433604051610a35959493929190611ca4565b60405180910390a15050565b60035481565b60055481565b600082118015610a5f57506003548211155b1515610a6a57600080fd5b610a7261177f565b6004600084815260200190815260200160002060a0604051908101604052908160008201548152602001600182018054600181600116156101000203166002900480601f016020809104026020016040519081016040528092919081815260200182805460018160011615610100020316600290048015610b345780601f10610b0957610100808354040283529160200191610b34565b820191906000526020600020905b815481529060010190602001808311610b1757829003601f168201915b505050505081526020016002820160009054906101000a900460ff16151515158152602001600382015481526020016004820160009054906101000a900473ffffffffffffffffffffffffffffffffffffffff1673ffffffffffffffffffffffffffffffffffffffff1673ffffffffffffffffffffffffffffffffffffffff168152505090508060400151151515610bcb57600080fd5b600181604001901515908115158152505080606001518214151515610bef57600080fd5b6000678ac7230489e80000610c09836060015185036116e3565b029050803410151515610c1b57600080fd5b6000610c4283606001516002600080815260200190815260200160002060040154036116e3565b905060008090506000600190505b60015481111515610ea557610c636117c7565b6002600083815260200190815260200160002060c0604051908101604052908160008201548152602001600182018054600181600116156101000203166002900480601f016020809104026020016040519081016040528092919081815260200182805460018160011615610100020316600290048015610d255780601f10610cfa57610100808354040283529160200191610d25565b820191906000526020600020905b815481529060010190602001808311610d0857829003601f168201915b50505050508152602001600282018054600181600116156101000203166002900480601f016020809104026020016040519081016040528092919081815260200182805460018160011615610100020316600290048015610dc75780601f10610d9c57610100808354040283529160200191610dc7565b820191906000526020600020905b815481529060010190602001808311610daa57829003601f168201915b505050505081526020016003820160009054906101000a900460ff16151515158152602001600482015481526020016005820160009054906101000a900473ffffffffffffffffffffffffffffffffffffffff1673ffffffffffffffffffffffffffffffffffffffff1673ffffffffffffffffffffffffffffffffffffffff16815250509050806060015115610e5d5750610e98565b6000610e8487606001516002600086815260200190815260200160002060040154036116e3565b905084811015610e95578094508293505b50505b8080600101915050610c50565b50610eae6117c7565b6002600083815260200190815260200160002060c0604051908101604052908160008201548152602001600182018054600181600116156101000203166002900480601f016020809104026020016040519081016040528092919081815260200182805460018160011615610100020316600290048015610f705780601f10610f4557610100808354040283529160200191610f70565b820191906000526020600020905b815481529060010190602001808311610f5357829003601f168201915b50505050508152602001600282018054600181600116156101000203166002900480601f0160208091040260200160405190810160405280929190818152602001828054600181600116156101000203166002900480156110125780601f10610fe757610100808354040283529160200191611012565b820191906000526020600020905b815481529060010190602001808311610ff557829003601f168201915b505050505081526020016003820160009054906101000a900460ff16151515158152602001600482015481526020016005820160009054906101000a900473ffffffffffffffffffffffffffffffffffffffff1673ffffffffffffffffffffffffffffffffffffffff1673ffffffffffffffffffffffffffffffffffffffff168152505090503373ffffffffffffffffffffffffffffffffffffffff168160a0015173ffffffffffffffffffffffffffffffffffffffff16141515156110d757600080fd5b6005600081548092919060010191905055506110f1611816565b608060405190810160405280600554815260200183815260200187815260200186815250905080600660006005548152602001908152602001600020600082015181600001556020820151816001016000820151816000015560208201518160010190805190602001906111669291906116ff565b5060408201518160020190805190602001906111839291906116ff565b5060608201518160030160006101000a81548160ff0219169083151502179055506080820151816004015560a08201518160050160006101000a81548173ffffffffffffffffffffffffffffffffffffffff021916908373ffffffffffffffffffffffffffffffffffffffff16021790555050506040820151816007016000820151816000015560208201518160010190805190602001906112269291906116ff565b5060408201518160020160006101000a81548160ff0219169083151502179055506060820151816003015560808201518160040160006101000a81548173ffffffffffffffffffffffffffffffffffffffff021916908373ffffffffffffffffffffffffffffffffffffffff1602179055505050606082015181600c0155905050600086604001901515908115158152505060018260600190151590811515815250508160a0015173ffffffffffffffffffffffffffffffffffffffff166108fc349081150290604051600060405180830381858888f19350505050158015611313573d6000803e3d6000fd5b50868260800181815250508686606001818152505060008260600190151590811515815250506000866040019015159081151581525050600087905086600460008b81526020019081526020016000206000820151816000015560208201518160010190805190602001906113899291906116ff565b5060408201518160020160006101000a81548160ff0219169083151502179055506060820151816003015560808201518160040160006101000a81548173ffffffffffffffffffffffffffffffffffffffff021916908373ffffffffffffffffffffffffffffffffffffffff16021790555090505082600260008681526020019081526020016000206000820151816000015560208201518160010190805190602001906114389291906116ff565b5060408201518160020190805190602001906114559291906116ff565b5060608201518160030160006101000a81548160ff0219169083151502179055506080820151816004015560a08201518160050160006101000a81548173ffffffffffffffffffffffffffffffffffffffff021916908373ffffffffffffffffffffffffffffffffffffffff1602179055509050507f1911ab5e5f0808231f2d2e7094fa48ed66dd745d367542a63ca861c14a15c8728760000151886020015189606001518a608001518760000151886020015189604001518a608001518b60a001518f8b6040516115319b9a99989796959493929190611e36565b60405180910390a1505050505050505050565b60015481565b6002602052806000526040600020600091509050806000015490806001018054600181600116156101000203166002900480601f0160208091040260200160405190810160405280929190818152602001828054600181600116156101000203166002900480156115fc5780601f106115d1576101008083540402835291602001916115fc565b820191906000526020600020905b8154815290600101906020018083116115df57829003601f168201915b505050505090806002018054600181600116156101000203166002900480601f01602080910402602001604051908101604052809291908181526020018280546001816001161561010002031660029004801561169a5780601f1061166f5761010080835404028352916020019161169a565b820191906000526020600020905b81548152906001019060200180831161167d57829003601f168201915b5050505050908060030160009054906101000a900460ff16908060040154908060050160009054906101000a900473ffffffffffffffffffffffffffffffffffffffff16905086565b6000808210156116f657816000036116f8565b815b9050919050565b828054600181600116156101000203166002900490600052602060002090601f016020900481019282601f1061174057805160ff191683800117855561176e565b8280016001018555821561176e579182015b8281111561176d578251825591602001919060010190611752565b5b50905061177b919061184c565b5090565b60a060405190810160405280600081526020016060815260200160001515815260200160008152602001600073ffffffffffffffffffffffffffffffffffffffff1681525090565b60c06040519081016040528060008152602001606081526020016060815260200160001515815260200160008152602001600073ffffffffffffffffffffffffffffffffffffffff1681525090565b6101a06040519081016040528060008152602001611832611871565b815260200161183f6118c0565b8152602001600081525090565b61186e91905b8082111561186a576000816000905550600101611852565b5090565b90565b60c06040519081016040528060008152602001606081526020016060815260200160001515815260200160008152602001600073ffffffffffffffffffffffffffffffffffffffff1681525090565b60a060405190810160405280600081526020016060815260200160001515815260200160008152602001600073ffffffffffffffffffffffffffffffffffffffff1681525090565b600082601f830112151561191b57600080fd5b813561192e61192982611f76565b611f49565b9150808252602083016020830185838301111561194a57600080fd5b611955838284612052565b50505092915050565b600061196a8235612012565b905092915050565b60008060006060848603121561198757600080fd5b600084013567ffffffffffffffff8111156119a157600080fd5b6119ad86828701611908565b935050602084013567ffffffffffffffff8111156119ca57600080fd5b6119d686828701611908565b92505060406119e78682870161195e565b9150509250925092565b60008060408385031215611a0457600080fd5b600083013567ffffffffffffffff811115611a1e57600080fd5b611a2a85828601611908565b9250506020611a3b8582860161195e565b9150509250929050565b600060208284031215611a5757600080fd5b6000611a658482850161195e565b91505092915050565b60008060408385031215611a8157600080fd5b6000611a8f8582860161195e565b9250506020611aa08582860161195e565b9150509250929050565b611ab38161201c565b82525050565b611ac281611fca565b82525050565b611ad181611fb8565b82525050565b611ae081611fdc565b82525050565b6000611af182611fad565b808452611b05816020860160208601612061565b611b0e81612094565b602085010191505092915050565b6000611b2782611fa2565b808452611b3b816020860160208601612061565b611b4481612094565b602085010191505092915050565b600060c083016000830151611b6a6000860182611c58565b5060208301518482036020860152611b828282611b1c565b91505060408301518482036040860152611b9c8282611b1c565b9150506060830151611bb16060860182611ad7565b506080830151611bc46080860182611c58565b5060a0830151611bd760a0860182611ab9565b508091505092915050565b600060a083016000830151611bfa6000860182611c58565b5060208301518482036020860152611c128282611b1c565b9150506040830151611c276040860182611ad7565b506060830151611c3a6060860182611c58565b506080830151611c4d6080860182611ac8565b508091505092915050565b611c6181612008565b82525050565b60006020820190508181036000830152611c818184611b1c565b905092915050565b6000602082019050611c9e6000830184611c58565b92915050565b600060a082019050611cb96000830188611c58565b8181036020830152611ccb8187611ae6565b9050611cda6040830186611ad7565b611ce76060830185611c58565b611cf46080830184611aaa565b9695505050505050565b600060c082019050611d136000830189611c58565b8181036020830152611d258188611ae6565b90508181036040830152611d398187611ae6565b9050611d486060830186611ad7565b611d556080830185611c58565b611d6260a0830184611ab9565b979650505050505050565b600060a082019050611d826000830188611c58565b8181036020830152611d948187611b1c565b9050611da36040830186611ad7565b611db06060830185611c58565b611dbd6080830184611ac8565b9695505050505050565b600060c082019050611ddc6000830189611c58565b8181036020830152611dee8188611b1c565b90508181036040830152611e028187611b1c565b9050611e116060830186611ad7565b611e1e6080830185611c58565b611e2b60a0830184611ab9565b979650505050505050565b600061016082019050611e4c600083018e611c58565b8181036020830152611e5e818d611b1c565b9050611e6d604083018c611c58565b611e7a606083018b611ac8565b611e87608083018a611c58565b81810360a0830152611e998189611b1c565b905081810360c0830152611ead8188611b1c565b9050611ebc60e0830187611c58565b611eca610100830186611ab9565b611ed8610120830185611c58565b611ee6610140830184611c58565b9c9b505050505050505050505050565b6000608082019050611f0b6000830187611c58565b8181036020830152611f1d8186611b52565b90508181036040830152611f318185611be2565b9050611f406060830184611c58565b95945050505050565b6000604051905081810181811067ffffffffffffffff82111715611f6c57600080fd5b8060405250919050565b600067ffffffffffffffff821115611f8d57600080fd5b601f19601f8301169050602081019050919050565b600081519050919050565b600081519050919050565b6000611fc382611fe8565b9050919050565b6000611fd582611fe8565b9050919050565b60008115159050919050565b600073ffffffffffffffffffffffffffffffffffffffff82169050919050565b6000819050919050565b6000819050919050565b60006120278261202e565b9050919050565b600061203982612040565b9050919050565b600061204b82611fe8565b9050919050565b82818337600083830152505050565b60005b8381101561207f578082015181840152602081019050612064565b8381111561208e576000848401525b50505050565b6000601f19601f830116905091905056fea265627a7a72305820268a0b3fecb35d1d5f4cece7a079c4f7bab72404346d518ed3da8c8857a75de46c6578706572696d656e74616cf50037",
  "source": "pragma solidity ^0.5.0;\npragma experimental ABIEncoderV2;\n\n\ncontract RideRequest {\n    string public name;\n\n    uint public driverCount = 0;\n    mapping(uint => Driver) public drivers;\n    \n    struct Driver {\n        uint id;\n        string name;\n        string car;\n        bool givingRide;\n        uint location;\n        address payable account;\n    }\n\n    function createDriver(string memory _name, string memory _car, uint _location) public{\n        require(bytes(_name).length > 0);\n        require(bytes(_car).length > 0);\n        driverCount++;\n        drivers[driverCount] = Driver(driverCount, _name, _car, false, _location, msg.sender);\n        emit DriverCreated(driverCount, _name, _car, false, _location, msg.sender);\n    }\n\n    event DriverCreated(\n        uint id,\n        string name,\n        string car, \n        bool givingRide,\n        uint location,\n        address payable account\n    );\n\n    uint public riderCount = 0;\n    mapping(uint => Rider) public riders;\n    \n    struct Rider {\n        uint id;\n        string name;\n        bool needsRide;\n        uint location;\n        address account;\n    }\n\n    function createRider(string memory _name, uint _location) public{\n        require(bytes(_name).length > 0);\n        riderCount++;\n        riders[riderCount] = Rider(riderCount, _name, false, _location, msg.sender);\n        emit RiderCreated(riderCount, _name, false, _location, msg.sender);\n    }\n\n    event RiderCreated(\n        uint id,\n        string name,\n        bool needsRide,\n        uint location,\n        address account\n    );\n\n\n    struct Ride {\n        uint id;\n        Driver selectedDriver;\n        Rider selectedRider;\n        uint price;\n    }\n\n    uint public rideCount = 0;\n    mapping(uint => Ride) public rides;\n\n\n    function requestRide(uint _id, uint destination) public payable {\n        \n        //Find Rider, Driver, Price\n        require(_id >0 && _id<=riderCount);\n\n        Rider memory _rider = riders[_id];\n        require(!_rider.needsRide);\n        _rider.needsRide = true;\n\n        require(destination != _rider.location);\n\n        //emit (msg);\n        \n        uint price = abs(destination-_rider.location)*10 ether;\n        require(msg.value >= price);\n\n        uint minDistance = abs(drivers[0].location-_rider.location);\n        uint bestDriver = 0;\n        for(uint i=1; i<=driverCount; i++) {\n            Driver memory _driver = drivers[i];\n            if(_driver.givingRide) {\n                continue;\n            }\n            else {\n                uint distance = abs(drivers[i].location-_rider.location);\n                if(distance < minDistance) {\n                    minDistance = distance;\n                    bestDriver = i;\n                }\n            }\n        }\n        Driver memory _driver = drivers[bestDriver];\n        require(_driver.account !=msg.sender);\n\n        //Pairing of Ride and record of Ride\n        rideCount++;\n        Ride memory finalizedRide = Ride(rideCount, _driver, _rider, price);\n        rides[rideCount] = finalizedRide;\n        _rider.needsRide = false;\n        _driver.givingRide = true;\n\n        //Ride Completed\n        address(_driver.account).transfer(msg.value);\n        _driver.location = destination;\n        _rider.location = destination;\n        _driver.givingRide = false;\n        _rider.needsRide = false;\n\n        uint dest = destination;\n\n        riders[_id] = _rider;\n        drivers[bestDriver] = _driver;\n\n        emit RideRequested(_rider.id, _rider.name, _rider.location, _rider.account, _driver.id, _driver.name, \n                            _driver.car, _driver.location, _driver.account, price, dest);\n    }\n\n    event RideRequested(\n        uint riderId,\n        string riderName,\n        uint riderLocation,\n        address riderAccount,\n\n        uint driverId,\n        string driverName,\n        string driverCar, \n        uint driverLocation,\n        address payable driverAccount,\n\n        uint price,\n        uint dest\n    );\n\n    function abs(uint x) private pure returns (uint){\n        return x >= 0 ? x : -x;\n    }\n\n    constructor() public {\n        name = \"Test\";\n    }\n}",
  "sourcePath": "/Users/RJ/Desktop/Desktop/College/dApp/starter_kit/src/contracts/RideRequest.sol",
  "compiler": {
    "name": "solc",
    "version": "0.5.0+commit.1d4f565a.Emscripten.clang"
  },
  "schemaVersion": "3.0.1",
  "updatedAt": "2022-02-17T01:00:27.893Z",
  "devdoc": {
    "methods": {}
  },
  "userdoc": {
    "methods": {}
  }
}